:020000040800F2
:1000000030070020850200087D1C0008751C0008D0
:10001000791C0008ED0D00082D1E000800000000EE
:10002000000000000000000000000000851C000827
:10003000D510000800000000811C0008891C000881
:100040009F0200089F0200089F0200089F0200080C
:100050009F0200089F0200089F0200089F020008FC
:100060009F0200089F0200089F0200089F020008EC
:100070009F0200089F0200089F0200089F020008DC
:100080009F0200089F0200089F0200080000000075
:100090000000000000000000000000009F020008B7
:1000A0009F0200089F0200089F0200089F020008AC
:1000B0009F0200089F0200089F0200089F0200089C
:1000C0009F0200089F0200089F0200089F0200088C
:1000D0009F0200089F0200089F0200080000000025
:1000E0009F0200089F0200089F0200080000000015
:1000F0000000000000000000000000009F02000857
:10010000000000009F0200089F0200089F020008F4
:1001100000000000000000000000000000000000DF
:100120009F0200089F0200089F0200089F0200082B
:100130009F02000800000000000000000000000016
:100140000000000000000000000000009F02000806
:100150009F0200089F0200089F0200089F020008FB
:100160009F0200089F02000800000000000000003D
:10017000000000000000000000000000000000007F
:10018000000000009F0200080000000000000000C6
:100190009F0200089F02000800F002F800F062F8D9
:1001A00014A696E8000CB244B344DA4501D100F03D
:1001B00059F8BAE80F000FA696E83000A5EB040541
:1001C00004EB0607AAEB0704A7F101074FEA151590
:1001D0004FEA3414A4F10104AC4201D300F042F818
:1001E00013F0010F18BFFB1A43F0010300F001F8F0
:1001F000DBE718475C2800007C280000103A24BF89
:1002000078C878C1FAD8520724BF30C830C144BF7B
:1002100004680C6070470000704700000023002451
:1002200000250026103A28BF78C1FBD8520728BF06
:1002300030C148BF0B607047662902F0B183642962
:1002400000F0CC80002070471FB502F09CFB00F04E
:1002500057FC04000020002102F008FBE0601FBDF5
:1002600010B510BD00F04CFD1146FFF7EDFF01F099
:10027000DFFD00F06AFD03B4FFF7F2FF03BC00F0FE
:10028000ADFD00000948804709480047FEE7FEE74A
:10029000FEE7FEE7FEE7FEE7FEE7FEE7FEE7FEE736
:1002A00004480549054A064B70470000311D000807
:1002B00099010008300100203007002030030020A1
:1002C0003003002053EA020C00F069802DE9F04B66
:1002D0004FF00006002B1FBFB3FA83F503FA05F4B5
:1002E00024FA05F65E4012BF1643B2FA82F502FA0E
:1002F00005F4C5F120051EBF22FA05FC44EA0C04F2
:10030000203556EA044C4FEA144418BF641C4FF0E1
:1003100000084FF00009904271EB030C39D300291B
:1003200019BFB1FA81F701FA07F6B0FA80F700FABF
:1003300007F6C7F120071EBF20FA07FC46EA0C06A5
:100340002037B6FBF4FCA7EB0507103F07F01F0BA7
:10035000CBF120062CFA06F60CFA0BFB44BFB34691
:100360000026202FA4BF5E464FF0000B5BEA060C70
:1003700008BF4FF0010B19EB0B0948EB0608ABFB6C
:10038000027C06FB02CC0BFB03CCC01B71EB0C0107
:10039000C1E70B46024641464846BDE8F08B13B51F
:1003A000084318BF4FF0FF300146AFF30080BDE8AF
:1003B0001C4070470FB41CB5074B06AA7B44694626
:1003C0000090059800F083FB0020694600F092FB46
:1003D0001CBC5DF814FB0000350700002DE9F0415E
:1003E0000646002410687529314616A510D0AFF3D3
:1003F0000080002802DA404213A507E031688A072E
:1004000001D512A502E0490704D511A5012401E098
:10041000AFF3008000210A2206F1240709E0B0FBB7
:10042000F2FCB0FBF2F302FB1C00303078541846AB
:10043000491C0028F3D123462A463046BDE8F04146
:1004400000F0D8B8000000002D0000002B000000D4
:10045000200000002DE9F0474FF0000A89460446CD
:10046000C0F820A02046E1688847002876D02528DB
:1004700006D0D4E901219047206A401C2062F1E7B0
:10048000E168204600258847C4F81CA006460027DE
:10049000C4F818A02A2E09D0304602F0DFF938B38C
:1004A00004EB8708303EC8F8186019E059F8041BBF
:1004B000204604EB87029161E1688847012F0646D8
:1004C00018D1E069002820DA25F020051DE0D8F8D1
:1004D000180000EB800006EB40003038C8F8180028
:1004E0002046E1688847064602F0B8F90028EED1B8
:1004F000012F0AD02E2E08D12046E16888477F1CA4
:100500000646022F45F02005C4DBA069002803DA67
:10051000404245F00105A061E80701D025F0100533
:10052000B6B1A6F14100192802D8203645F400657D
:100530004A463146204625604D46FFF77DFE58B1BC
:10054000012806D0ED1D25F0070000F1080989E714
:1005500004E005F1040985E730468AE7206ABDE832
:10056000F08710B5431C02E010F8011B71B1810740
:10057000FAD14FF0013202C88C1A8C4314EAC2112E
:10058000F9D0C01A0A0603D0C01E10BDC01A10BD93
:100590000A0401D0801E10BD0902FCD0401E10BD0F
:1005A0004FF0000200B5134694469646203922BF0C
:1005B000A0E80C50A0E80C50B1F12001BFF4F7AF57
:1005C000090728BFA0E80C5048BF0CC05DF804EB39
:1005D000890028BF40F8042B08BF704748BF20F8A7
:1005E000022B11F0804F18BF00F8012B70477047A5
:1005F000704770472DE9F0470D46994692460446EC
:1006000000F124080168880604D5E06921F0100192
:10061000216000E00120A84201DD471B00E0002727
:10062000A1697A1902EB0900081AA0612078C006B6
:1006300002D42046AFF30080002608E0D4E901216F
:100640001AF806009047206A401C761C20624E452E
:10065000F4DB2078C0060AD52046AFF3008006E020
:10066000D4E9012130209047206A401C2062381EC6
:10067000A7F10107F4DC07E0D4E9012118F805002F
:100680009047206A401C2062281EA5F10105F3DC7A
:100690002046AFF300802078000602D50220BDE896
:1006A000F0870120FBE72DE9FF4F0C461E464FF077
:1006B000FF378BB0D2E90001DDF860800A908A46EE
:1006C000C1F30A5505B93D46002108464FF0000028
:1006D000BAF1000F00F4400005DA00EB80004FF49F
:1006E000400101EA50004FEA9059B9F1010F00DDD5
:1006F000B9460A9850EA4A000ED044F61050A5F2C6
:10070000FF3545432F14B8F1000F1ED07542291E46
:100710001EDDC9F100021CE0B8F1010F4FF000002E
:1007200001D0302103E0F24305E02154401CB042E7
:10073000FBDB30460022002121540B99C1F80880D0
:10074000C1E900200FB0BDE8F08FBD1B6D1CDEE7D6
:100750004A4600DA694206A800F05CFA06AB93E864
:10076000070003AB83E8070050460A9901F096FCA6
:100770008DE80700A0F500501F3800900398002D69
:100780000ADD42F21F014A460844002303A90390F0
:10079000684601F0FFFE09E0A0F500504A461F3808
:1007A000002303A90390684601F009FF8DE80700C4
:1007B0000004000C03D04FF0FF30410800E0104669
:1007C000B8F1000F03D00022009215461EE0751EFE
:1007D00005D400F099F9303262556D1EF9D5B34653
:1007E0000122084302D000227F1C04E02078302838
:1007F00001D100227F1E002A099784D01DE0112D0F
:1008000007DA00F081F9303262556D1C50EA0102BE
:10081000F5D1084302D00098C8B10EE00021681E4F
:1008200005E0235C625C63542254401E491C8142F3
:10083000F7DBAB46A81B401E0990002004F80B0014
:100840000B98099AC0F80880C0E9002B7AE71126B6
:100850004FF0000857E72DE9F04F88460446D21DB7
:1008600022F0070191B0D1E90001CDE90A0101F0C0
:10087000DDFF02460B98C00F01D02D2007E0206855
:10088000810701D52B2002E0202101EAC000032AC4
:10089000099001D0072A05DB03464146204600F0B7
:1008A00079F90BE12078800601D5E06900E00620A7
:1008B000B8F1650F814606D0B8F1660F18D0B8F1CF
:1008C000670F70D131E00020B9F1110F009001DB0A
:1008D000112301E009F101030AAA01A90CA8FFF7FD
:1008E000E2FEDDE90C70002609F10105834647E0D0
:1008F00001204B4600904FF000470AAA01A90CA81E
:10090000FFF7D1FEDDE90DB00C995D46002610B968
:1009100009F101000D18B9EB050003D4C0F1FF3651
:1009200009F10105A5EB09002BE0B9F1010F01DA8E
:100930004FF001090020B9F1110F0090484601DD88
:10094000112300E003460AAA01A90CA8FFF7ABFE99
:10095000DDE90C704D4600268346207800070AD456
:10096000AB4500DA5D4601A8012D04DD411911F8FF
:10097000011C302907D04F4502DA17F1040F04DAC1
:10098000012082460FE06D1EEEE7002F02DCED1B1A
:100990003E4403E0781CA84200DD7D1CB81B00F13A
:1009A000010A4FF000472078000703D4AA4501DB75
:1009B0004FF0FF3A0021B7F1004F0DF143088DF8D9
:1009C000431024D002202B23002F01DA7F422D2355
:1009D0000A21021EA0F1010000DC5FB197FBF1FCCF
:1009E00097FBF1F201FB1C7C17460CF1300C08F868
:1009F00001CDEEE7A8F1010003702188090501D5BA
:100A0000452100E06521A0F1010800F8011C0998CA
:100A10000FA9A1EB0807FF1D00B10120411901EB4F
:100A2000EA70A1693844081A401EA0612078C00607
:100A300002D42046AFF30080099828B1D4E90121FF
:100A40009047206A401C20622078C00622D52046AC
:100A5000AFF300801EE0002E04DBB34502DD01A8E9
:100A6000805D00E03020D4E901219047206A401CDD
:100A70002062761CAAF101005FEA000A0AD100F0A8
:100A80003FF8C0680168405CD4E901219047206AC2
:100A9000401C2062281EA5F10105DCDC07E0D4E93A
:100AA000012118F8010B9047206A401C2062381E73
:100AB000A7F10107F3DC2046AFF30080032011B05B
:100AC00041E6000001694A1C02610878704700B5E0
:100AD0008FB0CDE901310021059105497944CDE977
:100AE000031011466846FFF7B5FC0FB000BD0000CB
:100AF000E5FFFFFF0A6802F8010B0A60704700007B
:100B0000004870473000002030B5B0F10A0271F1A2
:100B100000034FEA900E4EEA817EB0EB0E0061EBCF
:100B200091014FEA101E4EEA017E10EB0E0041EBE0
:100B300011114FEA102E4EEA016E10EB0E0041EB40
:100B400011214FEA104E4EEA014E10EB0E0041EB20
:100B50001141401841F100014FEAD00040EA4170D4
:100B60004FEAD1014FEA810444EA907410EB80050A
:100B700044EB01046D1944EB0404521BA3414FF0F4
:100B8000000348BF0A3200D530BD401C41F10001CE
:100B900030BD00002DE9F0411F46044603260168E0
:100BA000072A01F4006004DB08B116A505E016A5CC
:100BB00003E008B115A500E015A521F010002060A4
:100BC000A069C01EA0610FB1401EA0612046AFF316
:100BD00000804FB1D4E9012138469047206A401C7B
:100BE0002062C01C206206E0206AFAE7D4E90121F5
:100BF00015F8010B9047761EF8D22046AFF300801F
:100C0000BDE8F0814E414E006E616E00494E4600D7
:100C1000696E66002DE9F047814616468AB0354870
:100C200078440DC88DE80D0032487844801C03AC30
:100C30000DC884E80D0041F69B300844372190FB35
:100C4000F1F290FBF1F5A5F1800501FB12041B3CCC
:100C500002D56442012000E00020DFF898A0804621
:100C60000027FA44AAF1BE0A0EE0E0070AD0324695
:100C7000684607EB470101230AEB810101F09FFC65
:100C80008DE8070064107F1C002CEED1194F7F44C3
:100C9000AE3F19E0E80715D007EB04100DF1180A74
:100CA00090E80E008AE80E00C068F04201D1981961
:100CB00008903246012306A903A801F080FC03AB8B
:100CC00083E807006D10641C002DE3D14FF0010391
:100CD00032466946B8F1000F03A802D001F05AFC71
:100CE00001E001F06CFCC9E90001C9F808200AB074
:100CF000BDE8F087FC1D0000004870471000002090
:100D00007546FFF7F9FFAE4605006946534620F0E9
:100D10000700854618B020B5FFF7C2FABDE82040AD
:100D20004FF000064FF000074FF000084FF0000BA7
:100D3000AC46ACE8C009ACE8C009ACE8C009ACE816
:100D4000C00921F007018D46704710B50446AFF386
:100D500000802046BDE81040FFF78DBA000000007B
:100D600030B44FF0013C50F8042B51F8043BCCFA5E
:100D700052F4D51A20D1FCB950F8042B51F8043B99
:100D8000CCFA52F4D51A17D1B4B950F8042B51F853
:100D9000043BCCFA52F4D51A0ED16CB950F8042B9E
:100DA00051F8043BCCFA52F4D51A05D1002CDAD014
:100DB00030BC4FF00000704729BAB1FA81F111F050
:100DC0001801D1F120008440F2D1CA40CB4012F08A
:100DD000FF0213F0FF0330BCD01A704701491820FE
:100DE000ABBEFEE72600020070470000FEE70000F1
:100DF0002DE9F04F8BB040F2DC0AC2F2000A0291FA
:100E0000BAF80010019001200790DAF8040006916A
:100E1000002406A90994089400F072F9DAF8040095
:100E2000BAF80010002200F041FADAF80400BAF82B
:100E30000010012200F03AFABAF8000006A9069064
:100E4000DAF80400CDE90844079400F059F900BF2E
:100E5000DAF80400BAF8001000F022FAC007F7D060
:100E6000DAF80400BAF8001000F01AFAC007F7D157
:100E70004FF0000B1F260127D84600BFDAF8040008
:100E8000BAF8001000F00CFAC007F7D0DAF8040046
:100E9000BAF8001000F004FA044607FA06F500BF9D
:100EA000DAF80400BAF8001000F0FAF9C007F7D138
:100EB000E007C34618BF4BEA050B002EA6F101065A
:100EC000DAD100BFDAF80400BAF8001000F0E8F94F
:100ED000C007F7D0DAF80400BAF8001000F0E0F923
:100EE000059000BFDAF80400BAF8001000F0D8F955
:100EF000C007F7D1DAF80400BAF8001000F0D0F912
:100F0000C007F7D0DAF80400BAF8001000F0C8F90A
:100F1000049000BFDAF80400BAF8001000F0C0F93D
:100F2000C007F7D1DAF80400BAF8001000F0B8F9F9
:100F3000C007F7D0DAF80400BAF8001000F0B0F9F2
:100F4000039000BFDAF80400BAF8001000F0A8F926
:100F5000C007F7D1DAF80400BAF8001000F0A0F9E1
:100F6000C007F7D0DAF80400BAF8001000F098F9DA
:100F7000044600BFDAF80400BAF8001000F090F957
:100F8000C007F7D1DAF80400BAF8001000F088F9C9
:100F9000C007F7D0DAF80400BAF8001000F080F9C2
:100FA000064600BFDAF80400BAF8001000F078F93D
:100FB000C007F7D1DAF80400BAF8001000F070F9B1
:100FC000C007F7D0DAF80400BAF8001000F068F9AA
:100FD000074600BFDAF80400BAF8001000F060F924
:100FE000C007F7D1DAF80400BAF8001000F058F999
:100FF000C007F7D0DAF80400BAF8001000F050F992
:10100000054600BFDAF80400BAF8001000F048F90D
:10101000C007F7D1DAF80400BAF8001000F040F980
:10102000C007F7D0DAF80400BAF8001000F038F979
:10103000814600BFDAF80400BAF8001000F030F979
:10104000C007F7D10599039AC90165F3410167F318
:10105000820166F3C30164F3041162F34511049A3B
:1010600009F0010062F386114FEA1842084302EBCF
:10107000186101EB18215944C0B2C9B281421AD19A
:101080001FFA8BF74FEA1863D2B200EE107A42EAE9
:101090000322B8EEC00AB2EE041A80EE010A02EE94
:1010A000102AB8EEC22A82EE011A019A82ED000AD5
:1010B000029A82ED001A081AB0FA80F040090BB0CB
:1010C000BDE8F08F40F2DC02C2F2000250601180F5
:1010D0007047000070470000B0B5044600F0ECF81F
:1010E000054640F20000C2F200000078611C18BF03
:1010F000044400BF00F0E0F8401BA042FAD3B0BDAA
:101100002DE9F04F83B000F1200200F13E4741F29B
:101110000005009207F1FF77C4F2020507224FEAAB
:10112000B726A84208BF042200254FF000084FF060
:101130000009042E38BF4FEAB72201920AE000BF2F
:1011400009F1010908F10208B9F1100F05F10405D0
:1011500000F0A2800F68012202FA09FE17EA0E0AC7
:10116000EED0D1F804C003220CF003077E1E02FA71
:1011700008F4012E6FEA040B12D88468CE6804EAE2
:101180000B0406FA08F634438460446824EA0E0629
:10119000CCF3001404FA09F42643466004E000BFCF
:1011A000032F01D103271EE0C6688C6806EA0B06F0
:1011B00004FA08F42643022FC66014D16FF003022C
:1011C000009E02EA590756F807C005F01C040F22DA
:1011D0000B69A2402CEA0202A3401A43F251D1F853
:1011E00004C00CF00307026807FA08F302EA0B02D6
:1011F0001A431CF4403F0260A2D0002243F644038D
:101200000292C4F202031A6843F6004442F4804298
:101210001A601A68C4F2010402F480420292029A2F
:1012200029F003024FF6084C2244CFF6FF7C52F817
:101230000C3005F00C070F26BE40B343019E06FAA2
:1012400007F73B4342F80C30A2684B6842EA0A07B2
:1012500043F60C4CDE0258BF22EA0A07A760C4F22C
:10126000010CDCF800209E0242EA0A0758BF22EA7D
:101270000A07CCF8007062689E0342EA0A0758BF6A
:1012800022EA0A0767602268DB0342EA0A0758BFBE
:1012900022EA0A07276053E703B0BDE8F08F000099
:1012A0000069084018BF012070470000002A08BFED
:1012B000090481617047000040F22C10C2F2000066
:1012C0000068704740F2000040F22C11C2F20000AA
:1012D000C2F2000100780A681044086070470000FC
:1012E00080B543F60040C4F20200016841F4007189
:1012F0000160016841F480610160016841F480711E
:101300000160032000F076F8002000F005F800F0FE
:1013100027F8002080BD000070B540F20006C2F240
:10132000000640F208013278C2F200014FF47A73ED
:101330000968B3FBF2F20446B1FBF2F1084600F093
:101340004FFB0F2C4FF0010508D838B94FF0FF3094
:1013500021460022002500F021F87460284670BD67
:1013600082B0002043F640010190C4F202014A68B5
:1013700042F480424A604A6802F480420192019A33
:101380000090086840F080500860086800F08050C5
:1013900000900098072002B000F02CB810B54EF66F
:1013A0000C5CCEF2000CDCF80030C3F3022E8EF0A1
:1013B0000704042C28BF0424BEF103034FF0FF3EB2
:1013C0000EFA04F438BF0023A14399400EFA03F348
:1013D0009A43114300F00F0200F160430901043AFF
:1013E00003F564436244002848BF02F10C031970FE
:1013F00010BD00004EF60C51CEF200010A684FF607
:10140000FF031A4060F30A2242F0806040F0FD7052
:1014100008607047002804BF012070472DE9F041A3
:1014200043F60808C4F202080446D8F8F8030D464B
:1014300000F00700884207D288F8F853D8F8F8037C
:1014400000F00700A84277D12068810717D541072F
:1014500005D5D8F8001041F4E051C8F80010010794
:1014600005D5D8F8001041F46041C8F80010D8F84C
:101470000010A26821F0F0011143C8F80010C00765
:1014800040D1D8F8F80300F00700A84207D988F83F
:10149000F853D8F8F80300F00700A8424CD12068B0
:1014A000410707D5D8F80010E26821F4E051114354
:1014B000C8F80010000708D5D8F80000216920F40A
:1014C000604040EAC100C8F8000000F07DF8D8F89C
:1014D000001042F63822C1F30311C0F60002515C3D
:1014E00040F2080220FA01F140F20400C2F20000CA
:1014F0000068C2F200021160FFF70EFF0020BDE895
:10150000F08100BF6068811E022907D258F8081CCC
:1015100089015CBF0120BDE8F08111E0012807D1FD
:1015200058F8081C89035CBF0120BDE8F08107E082
:1015300058F8081C890703D40120BDE8F08100BFDA
:10154000D8F8001021F003010843C8F80000FFF7A5
:10155000B3FE064641F28837D8F80000616800F013
:101560000C00B0EB810F8CD0FFF7A6FE801BB842B9
:10157000F2D90320BDE8F08140F2080043F60801EB
:10158000C2F20000C4F202010068096842F6482273
:10159000C1F38221C0F60002515CC84070470000D0
:1015A00040F2080043F60801C2F20000C4F2020152
:1015B0000068096842F64822C1F34231C0F60002D1
:1015C000515CC8407047000010B543F60404C4F2F3
:1015D0000204606800F00C0142F200400829C0F2E9
:1015E000F40007D0042918BF10BD41F20020C0F25A
:1015F0007A0010BD216801F03F022168236849028A
:10160000C3F3881106D4A1FB00010023FEF75AFEA4
:1016100007E000BF41F20020C0F27A004843B0FB6F
:10162000F2F021680222C1F3014102EB4101B0FB5B
:10163000F1F010BD002804BF012070472DE9F041F2
:1016400082B00446007843F60006C007C4F20206E2
:101650000CD0B06800F00C00042840F081803068A5
:10166000800303D56068002800F068812078800737
:101670001BD5B06810F00C0F09D0B06800F00C005A
:10168000082840F087807068400200F1838030684D
:10169000800703D5E068012840F050813068216957
:1016A00020F0F80040EAC10030602078000713D431
:1016B000207840072AD4A569002D00F03A81B0684F
:1016C00000F00C00082840F0A580012D40F00E81AC
:1016D000012002B0BDE8F0816069002800F082803E
:1016E0000020C4F247200121C0F8801EFFF7E4FD6E
:1016F000054600BF706F8007DAD4FFF7DDFD401BA1
:101700000228F7D9032002B0BDE8F081306C5FEA0F
:10171000C0080AD400200190306C40F08050306442
:10172000306C00F080500190019847F20007C4F23D
:1017300000073868C00547D4386840F480703860C6
:10174000FFF7BAFD054600BF3868C0053CD4FFF777
:10175000B3FD401B0228F7D9032002B0BDE8F08199
:10176000B06800F00C00082803D1706840023FF513
:1017700076AF61683068B1F5803F07D0B1F5A02F32
:1017800040F09A8040F480203060306840F480302F
:1017900030609AE0E068002840F20000C4F2472080
:1017A0005CD001210160FFF787FD054630688007A6
:1017B0003FF574AFFFF780FD401B0228F6D90320E8
:1017C00002B0BDE8F08100BFA168306F012905D0EB
:1017D000052955D140F004003067306F40F001001A
:1017E000306756E00020C4F247200021C0F8801E78
:1017F000FFF762FD054600BF706F80077FF558AFA9
:10180000FFF75AFD401B0228F6D9032002B0BDE8BD
:10181000F08100BF0027C4F2472700203866FFF799
:101820004BFD022D05460DD13068800140F18A80C4
:10183000FFF742FD401B02284FF00300F4D902B02D
:10184000BDE8F0813068800173D5FFF735FD401B9E
:1018500002284FF00300F5D9F1E700BF0021016035
:10186000FFF72AFD054600BF306880077FF51DAFF2
:10187000FFF722FD401B02284FF00300F4D9DEE7FA
:1018800020F001003067306F002920F0040030673D
:101890007AD0FFF711FD054641F28837306F800797
:1018A00000F18480FFF708FD401BB842F6D9032001
:1018B00002B0BDE8F08100BF20F4803030603068B5
:1018C000002920F4802030607AD0FFF7F5FC05462F
:1018D000306880033FF5CAAEFFF7EEFC401B64287A
:1018E000F6D9032002B0BDE8F08100BF7068E1695D
:1018F00000F480028A4221D1216A00F03F028A422C
:101900001CD147F6C071626A0140B1EB821F15D14C
:10191000A16A4FF6FF73C903994300F44032A1F561
:1019200080318A420AD1E16A00F07060B0EB016F49
:1019300004D1002002B0BDE8F08100BF012002B058
:10194000BDE8F08104F11C052FCD084340EA821068
:10195000D9034FF6FF729143A1F5803140EA05604B
:101960000843706001203866FFF7A6FC044600BFFC
:1019700030688001DDD4FFF79FFC001B02284FF088
:101980000300F5D95BE700BFFFF796FC054641F27F
:10199000883700BF306F800708D5FFF78DFC401BEC
:1019A000B8424FF00300F5D949E700BFB8F1000F86
:1019B0003FF581AE306C20F0805030647BE600BF94
:1019C000FFF77AFC054600BF306880037FF54EAE16
:1019D000FFF772FC401B64284FF00300F4D92EE798
:1019E000411E0020B0EB116F1CBF012070474EF26A
:1019F0001002CEF2000251604EF62351CEF20001E9
:101A0000F0230B700721906011607047002804BF1D
:101A10000120704710B5044690F8410028B9002015
:101A200084F84000204600F021F8242084F841008A
:101A30002068C16821F40051C160204600F082F99D
:101A40002068016921F490410161416921F02A0176
:101A50004161C16841F40051C160002020216064EF
:101A600084F8411084F84210606310BD80B586B0E0
:101A700044F200410068C4F200010022884205924D
:101A8000CDE903220292019202D006B080BD00BFD0
:101A900043F630000092C4F20200036943F40033BD
:101AA0000361036903F400330093009B0092036811
:101AB00043F001030360006800F00100009000980B
:101AC0000C2001900220CDE902020320049007209F
:101AD000059001F5DE3001A9FFF712FB06B080BDCD
:101AE0002DE9F04381B0044690F84100202809D147
:101AF00000294FF0010018BF002A07D101B0BDE84E
:101B0000F08300BF022001B0BDE8F08300206064D4
:101B100021201D460E4684F841001746FFF7CCFBF6
:101B2000A784E784A1688146B1F5805F02D120696E
:101B300000285DD037460020E28C2168002A5DD065
:101B40006A1C24D0002D4AD0804600BF08680006D9
:101B500008D4FFF7B1FBA0EB0900A8427AD82168AE
:101B6000C868F3E717B117F8010B04E038F8020B67
:101B700000276FF35F204860E08C0138E084E08C40
:101B80000028E3D13AE000BF0A68120609D40A68C7
:101B9000120606D40A6812065CBF0A685FEA02628F
:101BA000F2D51FB117F8012B05E000BF30F8022B6A
:101BB00000276FF35F224A60E28C013AE284E28CF4
:101BC000002AE4D11AE000BF30F8022B00276FF39F
:101BD0005F224A60E28C013AE284E28C72B10A68C8
:101BE000120635D5002FEFD017F8012BF1E700BF13
:101BF00000273046E28C2168002AA1D108684006FF
:101C00001ED42DB3681C14D1086840062AD4086875
:101C1000400627D40868400624D4086840064FF0E0
:101C20000000F1D50DE000BF2068C16800684006E3
:101C300018D4FFF741FBA0EB0900A842F4D909E052
:101C40000020202184F8411001B0BDE8F08300BFDE
:101C5000FFF732FB0320202184F8411001B0BDE8DA
:101C6000F08300BF0020202184F8411001B0BDE8BE
:101C7000F0830000FEE70000FEE70000FEE7000042
:101C80007047000070470000FFF71CBB70B592B0B2
:101C900006AC20463021FEF783FC002543F64000C9
:101CA0000595CDE90355CDE901550095C4F2020033
:101CB0000168022641F080510160006800F0805008
:101CC0000090009847F200000095C4F200000168FF
:101CD00041F4404101600068322100F4404000902E
:101CE00000980120099010200A9008200F910421EB
:101CF0000E90CDE9101020460696CDE90C65FFF751
:101D000099FC18B172B600BFFEE700BF0F20CDE905
:101D100001064FF4A050CDE9040501A80021039568
:101D2000FFF778FB10B172B6FEE700BF12B070BDCE
:101D30004EF68850CEF20000016841F47001016057
:101D400070470000B0B50446006804F108030ECBEC
:101D50000569194325F440552A4302616269E36924
:101D60001143C268194349F20C639A431143C1609D
:101D70004169A26921F4407141F20043114340F4EA
:101D80008062C4F201039A42416103D1FFF708FC6B
:101D900002E000BFFFF7F0FBE1694FF69C75636856
:101DA0001922C0F6FF75B1F5004FA0FB02011FD14B
:101DB0005A00DB0FFEF786FA48F21F51C5F2EB110D
:101DC000A0FB01235A0905F1805302FB03003223D3
:101DD00003EBC000A0FB01014FF4F87000EA111002
:101DE00000EB0210C1F34211084421688860B0BDC5
:101DF0009A009B0FFEF766FA48F21F51C5F2EB11ED
:101E0000A0FB01235A0902FB0500322303EB00105B
:101E1000A0FB0101F02000EA511000EB0210C1F319
:101E20004311084421688860B0BD0000FEE700004F
:101E300088B040F20008C4F20208FFF751FAFFF739
:101E400025FF002743F630000797CDE90577CDE958
:101E500003770297C4F20200016808F5406541F07B
:101E6000040101600168002201F00401029102995D
:101E7000029701684FF4805441F00101016001684C
:101E800001F00101029102990297016841F00801F5
:101E9000016000684FF4805100F008000290029841
:101EA0002846FFF703FA40464FF4007100224FF432
:101EB0000079FFF7FBF94FF4005003AECDE90307BB
:101EC00008F5006031460597FFF71AF903940124DD
:101ED00028463146CDE904470697FFF711F94046F9
:101EE0003146CDE90394CDE90547FFF709F940F202
:101EF000E400A8F5DE31C2F200000C234FF4E13219
:101F000080E88600C0E90377C0E90537C761FFF7BD
:101F10007DFD18B172B600BFFEE700BF40F67450F9
:101F2000C0F20A00059045F22040C7F265300490E7
:101F300044F25510C5F2524003AE03903046FEF70E
:101F400010FB40F2E405C2F2000582B22846314699
:101F50006423FFF7C5FD4FF4FA60FFF7BDF8404674
:101F60004FF40071FFF7AEF82AA12846132264232C
:101F7000FFF7B6FD40F270060FF2B00AC2F200069B
:101F80000FF2C40B0FF2D8090AE000BF28464946F9
:101F90000C226423FFF7A4FD4FF4FA60FFF79CF8CE
:101FA0002846514619226423FFF79AFD311D304619
:101FB000FEF71EFF044606F108073846594622463A
:101FC000FEF7F8F93846FEF7CCFA82B228463946D1
:101FD0006423FFF785FD002CD8D0D6E9000400F07B
:101FE00061FC07462046884600F05CFC41EC100B83
:101FF00006F13A0420461EA13A4643468DED000BF9
:10200000FEF7D8F92046FEF7ACFA82B22846214600
:10201000BFE700BF53797374656D20696E69746999
:10202000616C697A65640D0A000000004174746592
:102030006D7074696E672044485432322072656155
:10204000642E2E2E0D0A0000444854323220726550
:10205000616420726573756C743A2025640D0A0002
:10206000435243204572726F72210D0A0000000036
:1020700054656D7020284329203D20252E31660DA2
:102080000A48756D69646974792028252529203DE1
:1020900020252E316625250D0A0000005FEA400C40
:1020A00008BF91F0000F4FEA8C234FEAC12243EAA8
:1020B00051514FEA1C5018BF00F5F0404FEA300074
:1020C00018BF41F000415FEA6C5C00F02980BCF170
:1020D000FF3F08BF40F080407047130C06BF12045A
:1020E0004FF0100C4FF0000C130E04BF12020CF155
:1020F000080C130F04BF12010CF1040C930F04BF62
:1021000092000CF1020CD30F04BF52000CF1010C31
:1021100011464FF00002A0F11F00A0EB0C00704729
:1021200011F0004F08BF704731F000413FF4D5AFC8
:102130000B0C06BF09044FF0100C4FF0000C0B0EF7
:1021400004BF09020CF1080C0B0F04BF09010CF1CC
:10215000040C8B0F04BF89000CF1020CCB0F04BFE1
:1021600049000CF1010CCCF1200322FA03F341EAFF
:10217000030102FA0CF2A0EB0C0000F10100704721
:1021800023F07F4720F07F4C80EA030000F00040FE
:10219000ACEB070303F57C5303F1FF032DE9804902
:1021A00009B44FEA144324EA03484FEA154B25EAE1
:1021B0000B4E0FF2042606EB13273E7803FB06674F
:1021C000C7F5000707FB06F64FEAD64606F10206FA
:1021D0004FEA543707FB066CCCF1005C4FEA1C4712
:1021E0002CEA074C0CFB06F507FB06F404EB15463E
:1021F0004FEA961649085FEA320234BF00204FF0DA
:1022000000404FEAD13706FB07FC4FEA1C4C0CFBA1
:102210000BF7D21B03FB0CF761EB07010CFB0EF76E
:10222000B0EB074072EB17420CFB08F734BFA2EB90
:102230000742B2EB074261EB17414FEA0C444FEA09
:10224000910706FB07FC4FEA1C4C0CFB0BF7B0EBAD
:10225000C74072EB573203FB0CF734BFA2EBC74207
:10226000B2EBC74261EB57310CFB0EF7B0EBC70086
:1022700072EB57720CFB08F734BFA2EBC702B2EB4C
:10228000C70261EB57714FEA816141EA92114FEA4F
:10229000826242EA90124FEA806004EBCC04039F12
:1022A0004FEAD13706FB07FC4FEA1C4C0CFB0BF73F
:1022B000D21B03FB0CF761EB07010CFB0EF7B0EB35
:1022C000074072EB17420CFB08F734BFA2EB074242
:1022D000B2EB074261EB17414FEA8C5504EB9C24AB
:1022E0004FEA910706FB07FC4FEA1C4C0CFB0BF76F
:1022F000B0EBC74072EB573203FB0CF734BFA2EBD5
:10230000C742B2EBC74261EB57310CFB0EF7B0EBA3
:10231000C70072EB57720CFB08F734BFA2EBC70281
:10232000B2EBC70261EB57714FEA816141EA92114A
:102330004FEA826242EA90124FEA806015EB4C2528
:1023400044F100044FEAD13706FB07FC4FEA1C4C6E
:102350000CFB0BF7D21B03FB0CF761EB07010CFB2B
:102360000EF7B0EB074072EB17420CFB08F734BFD7
:10237000A2EB0742B2EB074261EB17414FEA813112
:1023800041EA92414FEA823242EA90424FEA80307B
:102390004FEA0C7615EB1C1544F1000448EA0343A0
:1023A0004EEA0B484FF0000EB2EB080C71EB03073E
:1023B00024BF624639464EEB0E0E4FF0000B00185C
:1023C000524149414BEB0B0BB2EB080C71EB03078D
:1023D0007BF1000B24BF624639464EEB0E0E4FF0E8
:1023E000000B0018524149414BEB0B0BB2EB080CB0
:1023F00071EB03077BF1000B24BF624639464EEBBD
:102400000E0E51EA020718BF46F0010616EB0E76D3
:1024100055F1000254F1000103D5BDE88901BDE882
:102420000088BDE88901BDE80048B619524141EB7A
:102430000101A3F10103704780807F7E7D7C7B7A60
:102440007978777676757473727171706F6E6E6D60
:102450006C6C6B6A6A696868676666656464636306
:1024600062616160605F5F5E5E5D5D5C5C5B5B5A8C
:102470005A595958585757565655555554545353F9
:1024800052525251515050504F4F4F4E4E4D4D4D54
:102490004C4C4C4B4B4B4A4A4A494949484848479F
:1024A00047474746464645454544444444434343DD
:1024B00043424242424141419C46002B30D4770086
:1024C0002BD04FEA37071CB503B44FF010004FF084
:1024D0001001BAF1000F06D0BCF1000FDCBF40F0D4
:1024E000080040F008014FF000000FBCBDE81040AC
:1024F0000BF1010BBBF1010F08BF5FEA170722BF09
:1025000012F1010211F101014FF0004143F100030A
:1025100000F0004043EA00007047F9D35708D0E7C5
:1025200046EA06464FEA164613F1400F1FDD13F147
:10253000200FDFBF16430A46002120335B42BED086
:10254000C3F1200746EA06464FEA164602FA07F7A5
:1025500046EA070622FA03F2C3F1200701FA07F759
:1025600042EA070221FA03F14FF00003A7E746EA27
:10257000020646EA06464FEA164646EA0106BCBF90
:1025800046EA0646360C4FF000034FF000024FF0CB
:10259000000194E72DE9804C70B49A46934691E887
:1025A000380007C831EA400C48BF34EA430C03D571
:1025B000FFF7E6FDFFF780FFF0BCBDE8008C2DE9DA
:1025C000804C70B49A46934691E8380007C810F0E2
:1025D000804F08BF13F0804F03D100F005F8FFF7DC
:1025E0006BFFF0BCBDE8008C20F07F4723F07F4CF0
:1025F00080EA030000F0004007EB0C03A3F57C53D6
:10260000A3F1FE0392F0000F00F0B38095F0000FED
:1026100000F077802DE901494FEA114021EA004896
:102620004FEA144624EA064700FB06FC08FB06F6C0
:1026300007FB08F818EB06484CEB164C00FB07F7B5
:1026400018EB07484CEB17404FEA124B22EA0B4EAF
:102650004FEA154625EA06470BFB06FC0EFB06F67D
:1026600007FB0EFE1EEB064E4CEB164C0BFB07F762
:102670001EEB074E4CEB174B18EB0B0840F100001C
:1026800018EB0E0B58EB000840F100008F1A4FF0CA
:1026900000014FF000063CBFC943661B14BFB5EBF9
:1026A000040C00213CBFC943F61B4FEA174427EA3C
:1026B00004454FEA1C472CEA074C04FB076205FB64
:1026C00007F70CFB05F616EB074642EB174204FB37
:1026D0000CFC16EB0C4642EB1C421BEB060658EBBF
:1026E000020241414EEA8E0E46EA9E0601D5BDE841
:1026F0000189B619524141EB0101A3F10103BDE883
:1027000001894FEA144524EA05464FEA114721EAB8
:10271000074C05FB07F406FB07F70CFB06F111EB72
:10272000074144EB174405FB0CFC11EB0C4144EB57
:102730001C444FEA124722EA074C05FB07F206FB4E
:1027400007F70CFB06F616EB074642EB174205FBB4
:102750000CFC16EB0C4642EB1C456A1854F10001C8
:1027600048BF7047B619524141EB0101A3F1010383
:10277000704795F0000F37D04FEA114221EA024628
:102780004FEA144724EA074C02FB07F106FB07F760
:102790000CFB06F414EB074441EB174102FB0CFC65
:1027A00014EB0C4441EB1C414FEA154725EA074C5A
:1027B00002FB07F506FB07F70CFB06F616EB0746D0
:1027C00045EB174502FB0CFC16EB0C4645EB1C4297
:1027D000121951F1000148BF7047B619524141EB3F
:1027E0000101A3F1010370474FEA144524EA0546AD
:1027F0004FEA114721EA074C05FB07F106FB07F7F3
:102800000CFB06F212EB074241EB174105FB0CFCF7
:1028100012EB0C4251EB1C414FF0000648BF7047D1
:10282000921841EB0101A3F10103704703B4019831
:102830004100009850EAC12018BF04204A0D18BF7B
:1028400040F0010040F2FF72B2EB515F08BF40F070
:102850000200012808BF052002B0704730380A285E
:1028600001D20120704700207047000010B50029F8
:102870000AD00878002807D005487844FEF770FA97
:10288000002801D0002010BD0248784410BD00008F
:10289000F6010000EE0100000808A0F500114FEA63
:1028A0003101704743004FEAD30C4FEA3C0C4340E0
:1028B0001FBF40070CF1605113F0FE4F70471CF032
:1028C000006F03D10CF00041002070470CF0004372
:1028D00043EA507040EACC0010B500F00EF800BF9B
:1028E000000000924FEA0001FFF7D6BF4FF0004111
:1028F000A1F500214FF0000070470EF1020E2EF0FE
:10290000030E5EF8044B244204D44FEA4102B2F1B4
:102910007F4F11D84FEA4003B3F17F4F0CD80ED14F
:102920004FEAD07C0CEB4C0C0CF1020CB2F17F4F57
:1029300008BF4CEBD17C04E04FF0080C01E04FEAFB
:10294000D17C0CEB4C0324FA03F404F00704B4F13B
:10295000040C06D20EEB840CBDE810404CF0010CC8
:102960006047DFE80CF0070802024FF00040A0F5D6
:10297000800010BD0846420018BFD2F1807288BFA7
:1029800000F0004010BDF1EE100A4FF6FF71C0F2EA
:10299000C03120EA010040F04070E1EE100A7047BB
:1029A000FDF759BF02400000000000A00000000039
:1029B00005400000000000C8000000000C400000BE
:1029C0000000409C00000000194000000020BCBE38
:1029D0000000000034400000BFC91B8E000000044E
:1029E000B5400000504BCFD06607E2CF0100000099
:1029F0006C4100003E8251AADFEEA73401000000C6
:102A0000D9420000DCB5A0E23A301F97FFFFFFFF7C
:102A1000B4450000FD25A0C8E9A3C14FFFFFFFFF9B
:102A2000FF3F00000000008000000000FF3F0000AA
:102A30000000008000000000000000000000000016
:102A40000102030406070809000000000102030454
:102A5000902A00080000002010000000FC0100087F
:102A6000A02A000810000020200700001C02000817
:102A70001C00000043000000F8FFFFFF0C000000F6
:102A80000E0000000F0000002E00000000000000FB
:102A900001000000100000000024F400000000000D
:040000050800019955
:00000001FF
